:100000001FC100004EC100004CC100004AC10000E9
:1000100048C1000046C1000044C1000042C10000C8
:1000200040C100003EC100003CC100003AC10000D8
:1000300038C1000036C1000034C1000032C10000E8
:1000400030C100002EC100002CC100002AC10000F8
:1000500028C1000026C1000024C100000C947509CD
:1000600020C100003CC4000011C400001AC10000FF
:1000700018C1000016C1000014C1000012C1000028
:1000800010C100000EC100000CC100000AC1000038
:1000900008C1000006C1000004C1000002C1000048
:1000A00000C10000FEC00000FCC00000FAC000005B
:1000B000F8C00000F6C00000F4C00000F2C000006C
:1000C000F0C00000EEC00000ECC00000EAC000007C
:1000D000E8C00000E6C00000E4C00000E2C000008C
:1000E000E0C00000320337033F034A034C035103CF
:1000F00059036403720374036F087208610865088A
:100100006B08A90876087A088008840888088E0891
:1001100092089608A9089C08A008A40800002000DE
:100120002300260029002C002F00320000010000CF
:1001300003010601090100002100240027002A0014
:100140002D003000330001010000040107010A0105
:1001500000002200250028002B002E003100340072
:1001600002010000050108010B0105050505070551
:1001700008080808020202020A0A08080404040423
:10018000010101010101010103030303030303034F
:10019000040707070C0C0C0C0C0C0C0C02020202DE
:1001A00006060606060606060B0B0B0B0B0B0B0BC7
:1001B0000102102020080810204010204080020179
:1001C000020108040201010204081020408080405E
:1001D000201008040201800402018040201008045D
:1001E00002010804020101020408102040800102FB
:1001F00004081020408000000A0B02090C0D0E08B4
:1002000007030401000000000000000000000000DF
:1002100000000000000000000000000000000000DE
:10022000000012111000000000000000000000009B
:100230000000000000000000000000000211E210B9
:1002400011241FBECFEFD1E2DEBFCDBF00E00CBF57
:1002500025E0A4E5B3E001C01D92A232B207E1F7A8
:1002600013E0A0E0B2E0EAEFF9E200E00BBF02C069
:1002700007900D92A435B107D9F711E0CFE1D1E095
:1002800000E006C021970109802FFE010E947B1229
:10029000CE31D10780E00807A9F70E94BF090C946E
:1002A000EC14AECE0895CF92DF92EF92FF920F93AF
:1002B0001F93CF93DF936C017A018B01C0E0D0E0F4
:1002C000CE15DF0581F0D8016D918D01D601ED913C
:1002D000FC910190F081E02DC6011995892B11F058
:1002E0002196EECF7E01C701DF91CF911F910F9133
:1002F000FF90EF90DF90CF900895FC01538D448DD7
:10030000252F30E0842F90E0821B930B541710F0C0
:10031000CF96089501970895FC01918D828D9817CD
:1003200061F0828DDF01A80FB11D5D968C91928DD9
:100330009F5F9F73928F90E008958FEF9FEF0895D6
:10034000FC01918D828D981731F0828DE80FF11D9F
:10035000858D90E008958FEF9FEF0895FC01918DBA
:10036000228D892F90E0805C9F4F821B91098F73B3
:100370009927089580E993E0F1DF21E0892B09F4C2
:1003800020E0822F0895FC01848DDF01A80FB11DAC
:10039000A35ABF4F2C91848D90E001968F739927BB
:1003A000848FA689B7892C93A089B1898C91837099
:1003B00080648C93938D848D981306C00288F38992
:1003C000E02D80818F7D80830895EF92FF920F93BF
:1003D0001F93CF93DF93EC0181E0888F9B8D8C8DF1
:1003E000981305C0E889F989808185FD25C0F62E1E
:1003F0000B8D10E00F5F1F4F0F731127E02E8C8DB8
:10040000E8120BC00FB607FCFACFE889F9898081A2
:1004100085FFF5CFCE01B7DFF2CF8B8DFE01E80F60
:10042000F11DE35AFF4FF0829FB7F8940B8FEA89D2
:10043000FB89808180620AC09FB7F894EE89FF89AA
:100440006083E889F98980818370806480839FBF9D
:1004500081E090E0DF91CF911F910F91FF90EF909D
:100460000895CF93DF93EC01888D8823C1F0EA894A
:10047000FB89808185FD05C0A889B9898C9186FD9D
:100480000EC00FB607FCF5CF808185FFF2CFA8899B
:10049000B9898C9185FFEDCFCE0175DFE8CFDF9173
:1004A000CF91089580E090E0892B19F063DF8111EE
:1004B00025C080E090E0892B41F080E090E0892B1E
:1004C00021F00E94000081111CC080E090E0892B87
:1004D00041F080E090E0892B21F00E940000811122
:1004E00013C080E090E0892BA1F080E090E0892BA0
:1004F00081F00E94000081110AC008950E9400004E
:10050000D8CF0E940000E1CF0E940000EACF0C94F7
:100510000000089580E090E008950E949814862FCE
:10052000642F46C6CF93DF93FC01218530E0F901AB
:10053000EA50FE4F8491F901E055FE4FD491F90144
:10054000E659FE4FC491CC2371F08111ADD5EC2F4B
:10055000F0E0EE0FFF1FE45EFE4FA591B491EC9129
:10056000ED2381E009F480E08170DF91CF9108955F
:10057000CF93DF93EC0160E08E81ECD561E08E815A
:10058000E9D560E08E81E6D58BE891E00197F1F73F
:10059000DF91CF9108950F931F93CF93DF93EC01D9
:1005A0008B01888599850297D9F46130710569F0CE
:1005B00024F4672BA9F460E009C06230710551F0A2
:1005C0006330710569F460E006C061E08C85C2D5D6
:1005D00061E004C061E08C85BDD560E08E85BAD550
:1005E00088859985049771F501301105A1F044F4CF
:1005F0000115110539F561E08C85ACD560E00FC0BF
:100600000230110599F003301105E1F461E08C85A9
:10061000A1D560E00FC060E08C859CD561E08E853F
:1006200099D561E0888996D560E00AC060E08C8544
:1006300091D561E08E858ED560E088898BD561E0AB
:100640008A8988D588859985059709F060C00A3020
:10065000110508F05CC0F8018827EE58FF4F8F4F56
:100660000C947B1260E08C8575D561E041C060E040
:100670008C8570D561E08E856DD560E03CC060E012
:100680008C8568D561E08E8565D560E0888962D506
:1006900061E034C060E001C061E08C855BD561E061
:1006A00004C061E08C8556D560E08E8553D560E04E
:1006B00007C061E08C854ED560E08E854BD561E04A
:1006C000888948D561E00AC061E08C8543D560E047
:1006D0008E8540D561E088893DD560E08A893AD52C
:1006E00060E00FC061E001C060E08C8533D560E060
:1006F0008E8530D561E088892DD560E08A892AD53C
:1007000061E08C89DF91CF911F910F9123C5DF911B
:10071000CF911F910F9108950F931F93CF93DF9364
:100720008C01EB01FC0180819181009739F0688197
:10073000798161157105A1F40E942F138881998137
:10074000F801918380838A819B81938382838C814A
:100750009D8195838483198218821B821A820FC01F
:10076000F801428153812C813D814217530720F3C8
:100770000E94AE148C819D81F801958384831D8233
:100780001C82DF91CF911F910F9108950F931F93BA
:10079000CF93DF93EC0188819981009729F02A811A
:1007A0003B812617370788F48B016F5F7F4F0E94CC
:1007B000B813009761F0998388831B830A832C8187
:1007C0003D81232B11F4FC01108281E001C080E007
:1007D000DF91CF911F910F910895EF92FF920F93A8
:1007E0001F93CF93DF93EC017B018A01BA01CEDF27
:1007F0002881398181110DC02115310519F0C901F8
:100800000E942F13198218821D821C821B821A8259
:1008100006C01D830C83B701C9010E94AE14CE012E
:10082000DF91CF911F910F91FF90EF900895FC0100
:10083000808191810C942F13FC011182108213820C
:100840001282158214826115710549F0FB01019035
:100850000020E9F73197AF01461B570BBECF089533
:100860006115710579F0FB0101900020E9F73197DE
:10087000AF01461B570BDC01ED91FC910280F38127
:10088000E02D199480E090E00895EACF1F920F9236
:100890000FB60F9211240BB60F922F933F934F93E5
:1008A0005F936F937F938F939F93AF93BF93EF93D8
:1008B000FF9380E993E067DDFF91EF91BF91AF91E6
:1008C0009F918F917F916F915F914F913F912F9168
:1008D0000F900BBE0F900FBE0F901F9018951F9298
:1008E0000F920FB60F9211240BB60F922F938F9386
:1008F0009F93EF93FF93E091A003F091A103808178
:10090000E091A603F091A70382FD12C0908180912F
:10091000A9038F5F8F732091AA03821751F0E09192
:10092000A903F0E0E057FC4F958F8093A90301C025
:100930008081FF91EF919F918F912F910F900BBE2E
:100940000F900FBE0F901F901895CF92DF92EF92ED
:10095000FF920F931F93CF93DF936C017C0187E08D
:10096000E80EF11CC0E0D0E0062F10E0B8010C2E1C
:1009700002C0759567950A94E2F76170F70181915D
:100980007F01E8D32196C430D10581F7C601DF91FC
:10099000CF911F910F91FF90EF90DF90CF90E8CD16
:1009A000CF92DF92EF92FF920F931F93CF93DF933B
:1009B000EC01F62E642F8C81CDD38D818F3F11F009
:1009C00060E0C8D38F850F2D10E084FF23C06E0137
:1009D00087E0C80ED11CE12CF12CB8010E2C02C00E
:1009E000759567950A94E2F76170F60181916F0140
:1009F000B1D3FFEFEF1AFF0A88E0E816F10469F7B8
:100A0000CE01DF91CF911F910F91FF90EF90DF907A
:100A1000CF90AECDB80184E0759567958A95E1F7E2
:100A2000CE0193DF6F2DCE01DF91CF911F910F91FA
:100A3000FF90EF90DF90CF9088CF41E0B1DF81E071
:100A400090E008954F925F926F927F928F929F9263
:100A5000AF92BF92CF92DF92EF92FF920F931F93CC
:100A6000CF93DF93EC018B0177FF04C000271127A0
:100A7000061B170B161617062CF481E090E09983DD
:100A8000888304C0672B11F01982188284E0E82E55
:100A9000F12C9AE0C92ED12C0115110509F447C09B
:100AA000F3D38E889F88A88CB98C2B013C01481801
:100AB00059086A087B088A809B80AC80BD804814F6
:100AC00059046A047B0440F36E8B7F8B888F998F67
:100AD000288139818A859B852130310559F4019619
:100AE0009B878A872E813F818217930771F41B862B
:100AF0001A860BC0892B21F48E819F819B878A8760
:100B00008A859B8501979B878A87015011092885D3
:100B100039858A859B852530310511F4B60101C0E0
:100B2000B7010E942A12BC01CE0135DDB5CFDF919D
:100B3000CF911F910F91FF90EF90DF90CF90BF90DA
:100B4000AF909F908F907F906F905F904F9008959F
:100B50008DED94E0D4C08BEE94E0D1C087E095E0B9
:100B6000CEC089EF94E0CBC087E095E0E3D089EF79
:100B700094E0E0D08BEE94E0DDD08DED94E0DAC02F
:100B8000CF93DF93EC0169871886CCDC882319F0BA
:100B90008885836088879DD36A837B838C839D83CC
:100BA000DF91CF910895CF93DF93BC0180E993E06B
:100BB00057DEEC0161E573E080E993E051DE8C0FD4
:100BC0009D1FDF91CF91089540E0682F8DE594E05F
:100BD000E7CE81E0F9DF8BE39FE10197F1F708951C
:100BE000CF93DF93823028F090916C0498609093BB
:100BF0006C04809370041092710480E480937204FA
:100C000080E18093730480E58093740461E08091B7
:100C10006104CED2809162048F3F11F061E0C8D2AE
:100C200061E080916304C4D2CDE5D4E09E012D55EE
:100C3000344080916C0484FD03C084E090E002C0E5
:100C400088E090E021962817390724F461E08E812E
:100C5000AFD2ECCF8BE39DE00197F1F760E080919C
:100C6000610478D260E08091630474D28091620460
:100C70008F3F11F060E06ED280916C0484FD1CC047
:100C800063E08DE594E061DECBE4D6E4CE0101972C
:100C9000F1F763E08DE594E058DE2197F1F763E02A
:100CA0008DE594E052DE83E592E00197F1F762E092
:100CB0008DE594E04ADE12C0806286DF8BE496E424
:100CC0000197F1F780916C0480627EDF83E592E00A
:100CD0000197F1F780916C04806276DF80916C045B
:100CE000806272DF84E080936D048CE06DDF71DFE1
:100CF00082E080936E0486E0DF91CF9165CFFC01A6
:100D0000808580FD04C082FB882780F9089580E0FB
:100D10000895643008F063E090917004691710F052
:100D20006FEF690FE62FF0E0E35AFB4F9489890FCC
:100D300080684ACFCF92DF92EF92FF921F93CF93BA
:100D4000DF93EC0188858B7F8887CE01EBDB182F42
:100D5000888586958170181751F0BBD26A837B8392
:100D60008C839D83988582E08927888727C0B1D2AC
:100D7000CA80DB80EC80FD80AB01BC014C195D09B1
:100D80006E097F098E819F81A0E0B0E04817590766
:100D90006A077B0798F088858170181779F099D2D7
:100DA0006A837B838C839D83988581E08927846017
:100DB00088878FD26A877B878C879D87888582FB0F
:100DC000882780F9DF91CF911F91FF90EF90DF90FE
:100DD000CF9008954F925F926F927F928F929F92E1
:100DE000AF92BF92CF92DF92EF92FF920F931F9339
:100DF000CF93DF93CDB7DEB7A1970FB6F894DEBFE0
:100E00000FBECDBF8C016B01770FEE08FF08F7FE18
:100E10002EC0DC01ED91FC910190F081E02D6DE29E
:100E200019955C0122273327A9012C193D094E0988
:100E30005F0919A2FE01B1967F019AE0492E512C5B
:100E4000612C712CCA01B901A30192010E943D12CB
:100E5000605DD7016E937D01211531054105510576
:100E600089F7BD01C801FCDC8A0D9B1D1DC0A701CF
:100E7000960119A2FE01B1967F018AE0882E912C7D
:100E8000A12CB12CCA01B901A50194010E943D1207
:100E9000605DD7016E937D01211531054105510536
:100EA00089F7BD01C801DCDCA1960FB6F894DEBF5E
:100EB0000FBECDBFDF91CF911F910F91FF90EF90AB
:100EC000DF90CF90BF90AF909F908F907F906F906A
:100ED0005F904F900895EDE5F4E08089982F92603F
:100EE000908B8A6071CECF93DF9320915B04309119
:100EF0005C04232B79F0FC01C0915704D091580475
:100F000060817181CE010E94D214009719F08C1B70
:100F10009D0B02C08FEF9FEFDF91CF910895CF938C
:100F2000DF93FC01448155816081718180E993E008
:100F3000BAD9EC0161E573E080E993E091DC8C0FB4
:100F40009D1FDF91CF910895BC0180918E039091F8
:100F50008F03E0E8F3E027E030E0215031093297D9
:100F60002115310551F04685578564177507ACF793
:100F70004817590794F7CA01F0CF08950F931F93AC
:100F8000CF93DF9341155105E1F061157105C9F06B
:100F9000FC01C481D581209719F4FB01108211C096
:100FA000415051094C175D0708F4EA018B01FC011F
:100FB00060817181AE01C8010E94C314C00FD11FAE
:100FC0001882DF91CF911F910F910895CF92DF92F8
:100FD000EF92FF920F931F93CF93DF936C01EB017E
:100FE0007A014617570720F48D2FEA01E62EF82ED6
:100FF00063E573E0C60120DC00915B0410915C04A2
:10100000C017D107B0F5E016F10608F48701E091AA
:101010005704F0915804E00FF11FF08010826091A6
:101020005704709158046C0F7D1F6115710559F0BC
:10103000FB0101900020E9F73197AF01461B570BE8
:10104000C601CBDB0EC0F60180819181009711F0C3
:101050000E942F13F60111821082158214821382CE
:1010600012828091570490915804FC01E00FF11F07
:10107000F082C601DF91CF911F910F91FF90EF9009
:10108000DF90CF900895CF93DF93BC0180E993E088
:10109000A1DEEC0161E573E080E993E0E1DB8C0F18
:1010A0009D1FDF91CF91089590E0FC013197E231CF
:1010B000F10508F04EC08827E458FF4F8F4F0C947D
:1010C0007B12809180008F7703C0809180008F7D9C
:1010D00080938000089580918000877FF9CF84B548
:1010E0008F7702C084B58F7D84BD08958091B00054
:1010F0008F7703C08091B0008F7D8093B0000895FA
:10110000809190008F7707C0809190008F7D03C001
:1011100080919000877F8093900008958091A00037
:101120008F7707C08091A0008F7D03C08091A000C1
:10113000877F8093A0000895809120018F7707C05A
:10114000809120018F7D03C080912001877F809353
:10115000200108951F93CF93DF93282F30E0F901EA
:10116000EA50FE4F8491F901E055FE4FD491F90108
:10117000E659FE4FC491CC23B9F0162F811194DFAC
:10118000EC2FF0E0EE0FFF1FE05BFE4FA591B49156
:101190009FB7F894111104C08C91D095D82302C048
:1011A000EC91DE2BDC939FBFDF91CF911F910895CF
:1011B000CF93DF9390E0FC01E055FE4F2491FC01BA
:1011C000E659FE4F8491882361F190E0880F991FC2
:1011D000FC01EA5CFE4FC591D491FC01E05BFE4F3F
:1011E000A591B491611109C09FB7F89488812095A9
:1011F00082238883EC912E230BC0623061F49FB769
:10120000F8948881322F309583238883EC912E2B9C
:101210002C939FBF06C08FB7F894E8812E2B2883AC
:101220008FBFDF91CF9108950F931F93CF93DF93DB
:10123000EC01862F1B861A86198218821E8A1F8A45
:10124000188E198EE4E1F0E0FF83EE836C877D87D2
:101250005F874E87398B288B1B8B0A8B61E0A8DF59
:1012600061E08E85A5DF61E08889A2DF61E08A897F
:101270009FDF1D8A1C8A84E090E099878887DF9130
:10128000CF911F910F9108953FB7F89480911A055F
:1012900090911B05A0911C05B0911D0526B5A89B3A
:1012A00005C02F3F19F00196A11DB11D3FBFBA2FF8
:1012B000A92F982F8827820F911DA11DB11DBC0158
:1012C000CD0142E0660F771F881F991F4A95D1F71D
:1012D00008952FB7F89460911605709117058091C5
:1012E0001805909119052FBF08951F920F920FB600
:1012F0000F9211242F933F938F939F93AF93BF939C
:101300008091160590911705A0911805B0911905C7
:101310003091150523E0230F2D3720F40196A11DF0
:10132000B11D05C026E8230F0296A11DB11D209313
:1013300015058093160590931705A0931805B09393
:10134000190580911A0590911B05A0911C05B0917B
:101350001D050196A11DB11D80931A0590931B05D3
:10136000A0931C05B0931D05BF91AF919F918F91E4
:101370003F912F910F900FBE0F901F901895CF9314
:10138000DF93CDB7DEB72C970FB6F894DEBF0FBE54
:10139000CDBF789484B5826084BD84B5816084BDFE
:1013A00085B5826085BD85B5816085BD80916E0003
:1013B000816080936E001092810080918100826034
:1013C0008093810080918100816080938100809171
:1013D00080008160809380008091B1008460809360
:1013E000B1008091B00081608093B0008091910045
:1013F0008260809391008091910081608093910040
:10140000809190008160809390008091A100826023
:101410008093A1008091A10081608093A1008091C0
:10142000A00081608093A000809121018260809360
:10143000210180912101816080932101809120010F
:1014400081608093200180917A00846080937A008B
:1014500080917A00826080937A0080917A00816026
:1014600080937A0080917A00806880937A0010924D
:10147000C10082E0B5DB61E08EE09ADEE091A0037E
:10148000F091A10382E08083E0919C03F0919D03A1
:101490001082E0919E03F0919F0380E1808310927F
:1014A000A803E091A403F091A50386E08083E09176
:1014B000A203F091A303808180618083E091A20365
:1014C000F091A303808188608083E091A203F09172
:1014D000A303808180688083E091A203F091A3033D
:1014E00080818F7D80838FE292E05DDB62E08FE11F
:1014F0005FDE62E081E25CDE62E083E259DE62E0B0
:1015000085E256DE65E270E087E095E039DB09E1CF
:1015100010E010930E0500930D056FE170E089EF68
:1015200094E02EDB109300050093FF0461E270E06D
:101530008BEE94E025DB1093F2040093F10463E258
:1015400070E08DED94E01CDB1093E4040093E30461
:1015500074E6472E512C612C712C80917E03909162
:101560007F038230910509F406C13CF4009781F0B5
:10157000019709F024C62DDBDDC08330910509F405
:1015800031C1049709F01BC624DB03E010E0F3C56A
:1015900020DB02E010E080917E0390917F03892B95
:1015A00009F00DC6E1DA60E083E0B3DB65E372E0E9
:1015B0008DE594E06AD961E080E0ABDB60E472E045
:1015C0008DE594E062D9C7DA882309F47CC02091C4
:1015D000C9043091CA04032E000C440B550B60E083
:1015E00077E883E993E06BD7CA01B901A3019201BF
:1015F00066D72093C5043093C6044093C704509324
:10160000C8046FEF7FEF83EC94E01CDA2091AF0405
:101610003091B004032E000C440B550B60E077E8CA
:1016200083E993E04CD7CA01B901A301920147D7DE
:101630002093AB043093AC044093AD045093AE04BC
:1016400061E070E089EA94E0FDD920919504309141
:101650009604032E000C440B550B60E077E883E9F9
:1016600093E02DD7CA01B901A301920128D7209395
:10167000910430939204409393045093940461E056
:1016800070E08FE894E0DED920917B0430917C04F7
:10169000032E000C440B550B60E077E883E993E0E0
:1016A0000ED7CA01B901A301920109D7209377048B
:1016B000309378044093790450937A0461E070E0A9
:1016C00085E794E0BFD94ADA882309F464CF809192
:1016D0000002811107C081E090E090937F03809326
:1016E0007E0359CF10937F0300937E0354CFCCDD4C
:1016F000DC01CB0188199909AA09BB09883E9340EE
:10170000A105B105A0F321E0C21AD108E108F10852
:1017100088EE880E83E0981EA11CB11CC114D10470
:10172000E104F10421F781E08093000210927F032D
:1017300010927E0380917E0390917F03019709F0C0
:101740003EC560E080E0E5DA6EE472E08DE594E0AD
:101750009CD861E080E0DDDA6BE572E08DE594E035
:1017600094D892DD4B015C0168EBC62E6BE0D62E5F
:10177000E12CF12CBCCF2DDA03E010E080917E0348
:1017800090917F03029709F01AC5EED960E080E0DE
:10179000C0DA6CE672E08DE594E077D861E080E035
:1017A000B8DA69E772E08DE594E06FD880910002C5
:1017B000811104C010927F0310927E031092770370
:1017C00010927603109279031092780310927B03A3
:1017D00010927A03C3D9882389F210937F03009370
:1017E0007E03CCCFF6D985E990E090937B0380937C
:1017F0007A038BE291E0909379038093780387ECEE
:1018000090E0909377038093760353E0252E312C5C
:10181000812C912C00E010E080917E0390917F0359
:10182000039709F0CCC480E993E00E94AE0118163A
:1018300019060CF069C280E993E00E948C0189834B
:101840001A82E0905B04F0905C048FEFE81AF80ACB
:10185000B70187E594E00E94C603882399F02091A0
:1018600057043091580480915B0490915C04BE0150
:101870006F5F7F4F820F931F0E94AE14F0925C0443
:10188000E0925B0468E872E0CE0107960E941C04B7
:101890004B855C8580915B0490915C04841795076F
:1018A000C8F18091570490915804009799F16F8185
:1018B00078856115710571F10E94B514892B51F578
:1018C0006AE872E0CE0101960E941C0420915B043C
:1018D00030915C044D815E8124173507A8F080911A
:1018E000570490915804009779F069817A816115C5
:1018F000710551F0241B350B820F931F0E94A51414
:10190000FF24F394892B09F0F12CCE0101960E945B
:10191000170401C0F12CCE0107960E941704FF2086
:1019200009F4F2C16CE872E0CE0101960E941C0439
:10193000CE010196D8DA9093730380937203CE019F
:1019400001960E9417048091720390917303909303
:1019500081038093800362E073E0CE0101960E94D0
:101960001C04CE010196BFDA90937103809370033B
:10197000CE0101960E94170480917003909171032B
:1019800090938303809382036AE173E0CE01019612
:101990000E941C04CE010196A6DA90936F038093F7
:1019A0006E03CE0101960E94170480916E03909100
:1019B0006F0390938503809384036FE872E0CE01F8
:1019C00001960E941C04CE0101968DDA90936D035E
:1019D00080936C03CE0101960E94170480916C03E2
:1019E00090916D03909387038093860362E972E080
:1019F000CE0101960E941C04CE01019674DA9093E8
:101A00006B0380936A03CE0101960E9417048091B4
:101A10006A0390916B03909389038093880365E92F
:101A200072E0CE0101960E941C04CE0101965BDAA1
:101A30009093690380936803CE0101960E94170476
:101A4000809168039091690390938B0380938A033C
:101A500068E972E0CE0101960E941C04CE01019655
:101A600042DA9093670380936603CE0101960E9449
:101A70001704809166039091670390938D03809380
:101A80008C036AE872E0CE0101960E941C04CE012C
:101A9000019629DA9093650380936403CE01019641
:101AA0000E941704809164039091650390938F03C3
:101AB00080938E036BE972E080E993E00E94450415
:101AC00087E594E02CDA80917203909173031816E5
:101AD000190684F539DA7C016DEA72E080E993E059
:101AE0000E944504A7014F5F5F4F609172037091A0
:101AF00073036E5F7F4FCE01019668DABE016F5FA0
:101B00007F4F8BE494E00E948C03CE0101960E94EB
:101B1000170440914F045091500460E673E08BE449
:101B200094E02CDA80E693E070D490937503809370
:101B30007403A9DA80916C0390916D03181619064D
:101B400004F502DA7C016AEB72E080E993E00E941E
:101B5000450460916C0370916D036E5F7F4FA70128
:101B6000CE01019633DABE016F5F7F4F81E594E0CD
:101B70000E948C03CE0101960E94170481E594E037
:101B8000CED980916A0390916B031816190684F5DB
:101B9000DBD97C0167EC72E080E993E00E944504A8
:101BA000A7014F5F5F4F60916A0370916B036E5F97
:101BB0007F4FCE0101960ADABE016F5F7F4F89E346
:101BC00094E00E948C03CE0101960E94170440917C
:101BD0003D0450913E046CE573E089E394E0CED976
:101BE0008CE593E012D490937703809376034BDADD
:101BF00080916803909169031816190684F5A4D999
:101C00007C0164ED72E080E993E00E944504A70145
:101C10004F5F5F4F60916803709169036E5F7F4F04
:101C2000CE010196D3D9BE016F5F7F4F83E394E06D
:101C30000E948C03CE0101960E9417044091370444
:101C40005091380468E573E083E394E097D988E520
:101C500093E0DBD3909379038093780314DA809137
:101C60006603909167031816190684F56DD97C01F7
:101C700061EE72E080E993E00E944504A7014F5FA6
:101C80005F4F60916603709167036E5F7F4FCE0177
:101C900001969CD9BE016F5F7F4F8DE294E00E9458
:101CA0008C03CE0101960E9417044091310450919B
:101CB000320464E573E08DE294E060D984E593E05A
:101CC000A4D390937B0380937A03DDD98091700332
:101CD000909171031816190624F48EEE92E00E947A
:101CE000D30580916E0390916F031816190624F4A2
:101CF00085E093E00E94D30540E050E067E072E0A9
:101D000087E594E00E94ED030E94B40560E080E066
:101D100000D86DE173E08DE594E00E944504609188
:101D20007403709175038DE594E054D860E08AE007
:101D30000E9489066AEE72E08DE594E00E944504F7
:101D400060917A0370917B038DE594E043D861E064
:101D500080E00E94890664E273E08DE594E00E94D1
:101D6000450460917603709177038DE594E032D855
:101D700061E08AE00E9489066DED72E08DE594E0F5
:101D80000E94450460917803709179038DE594E099
:101D900021D80E94AE05882331F084E090E0909332
:101DA0007F0380937E030115110541F480916D043A
:101DB0008D7F80936D0488600E94E4050E94B105C8
:101DC000882311F001E010E034E0C32ED12C42E072
:101DD000A42EB12C0130110599F40E94B405811490
:101DE000910429F460E08AE00E94890674D80E9478
:101DF000B105882349F09FEF891A990A02E010E0A3
:101E000024E0E22EF12C79C00E94AB058823B1F1C9
:101E100080917A0390917B030196873991052CF488
:101E200090937B0380937A0312C086E990E09093AD
:101E30007B0380937A0381E090E090937D0380930D
:101E40007C03D0927F03C0927E0300E010E0E0901C
:101E50007A03F0907B0396E9E916F10434F461E02B
:101E600070E08FE894E00E94220560E08DE00E941F
:101E70008906B7018DE594E00E94EA060E94A80554
:101E8000882309F4A7CF80917A0390917B0301976F
:101E900090937B0380937A0397FF10C010927B038B
:101EA00010927A03B0927D03A0927C030E94E90510
:101EB000D0927F03C0927E0300E010E0E0907A03AE
:101EC000F0907B031E141F0434F46FEF7FEF8FE854
:101ED00094E00E94220560E08DE00E948906B7012F
:101EE0008DE594E00E94EA0675CF0E94AB05811152
:101EF00023C00E94A805811154C002301105A9F425
:101F00000E94B40521E08216910431F461E080E082
:101F10000E9489060E946B070E94B105882329F35D
:101F20008FEF881A980A03E010E084E0C82ED12CC5
:101F300096E0A92EB12C7EC0809176039091770314
:101F40000196893C91052CF4909377038093760356
:101F500010C088EC90E090937703809376033092E2
:101F60007D0320927C03F0927F03E0927E0300E0E9
:101F700010E0C0907603D090770398ECC916D10496
:101F800034F461E070E083EC94E00E94220561E0AB
:101F900086E00E948906B6018DE594E00E94EA067B
:101FA000A8CF8091760390917703019797FD05C0A4
:101FB00090937703809376030EC01092770310926C
:101FC0007603F0927D03E0927C03F0927F03E0922F
:101FD0007E0300E010E0C0907603D09077031C14DD
:101FE0001D0434F461E070E083EC94E00E9422056B
:101FF00061E086E00E948906B6018DE594E00E94CA
:10200000EA067BCF0E94B40522E08216910431F4E7
:1020100061E08AE00E9489060E946B070E94B10578
:102020008111F6CB0E94AB05811108C00E94A80562
:1020300081113DC00330110529F3EECB8091780367
:102040009091790301968D3221E092072CF49093C0
:1020500079038093780312C08CE291E09093790326
:102060008093780385E090E090937D0380937C03D8
:10207000D0927F03C0927E0300E010E0E0907803EE
:10208000F09079039CE2E91691E0F90634F461E0FE
:1020900070E089EA94E00E94220561E08DE00E94F0
:1020A0008906B7018DE594E00E94EA06BFCF8091D2
:1020B000780390917903019797FD05C09093790378
:1020C000809378030EC01092790310927803B09237
:1020D0007D03A0927C03D0927F03C0927E0300E038
:1020E00010E0E0907803F09079031E141F0434F49C
:1020F00061E070E089EA94E00E94220561E08DE0F1
:102100000E948906B7018DE594E00E94EA0692CF0D
:102110000E94B40560E082E00E9489066BE273E0F1
:102120008DE594E00E94450461E084E00E94890608
:1021300068E373E08DE594E00E94450480917C03A0
:1021400090917D0381309105E9F46FE373E08DE5B3
:1021500094E00E94450480916D048D7F80936D040E
:1021600088600E94E4050E94AE05882321F0109348
:102170007F0300937E0380917E0390917F030497F9
:1021800039F21DC08230910519F462E473E0DFCFAB
:102190008330910519F465E473E0D9CF843091055B
:1021A00019F468E473E0D3CF8530910519F46BE43A
:1021B00073E0CDCF069779F66EE473E0C8CF0E9446
:1021C0005202CBC98DE294E00E94170483E394E0AD
:1021D0000E94170489E394E00E9417048FE394E0BF
:1021E0000E94170485E494E00E9417048BE494E0B5
:1021F0000E94170481E594E00E94170487E594E0AB
:102200000C9417040F931F93CF93DF93E0E9F3E04F
:102210001382128288EE93E0A0E0B0E0848395837D
:10222000A683B7838DE092E09183808385EC90E074
:102230009587848784EC90E09787868780EC90E090
:10224000918B808B81EC90E0938B828B82EC90E081
:10225000958B848B86EC90E0978B868B118E128EFB
:10226000138E148E63E573E087E594E00E941C04EE
:1022700063E573E081E594E00E941C0463E573E08C
:102280008BE494E00E941C0463E573E085E494E031
:102290000E941C0463E573E08FE394E00E941C0439
:1022A00063E573E089E394E00E941C0463E573E056
:1022B00083E394E00E941C0463E573E08DE294E004
:1022C0000E941C04EDE5F4E0138212828FE192E09B
:1022D000918380838AE184838FEF85838CE1868379
:1022E00084E2878382E2808780E281878EE1828731
:1022F0001386148615861686178681E00E94F005DF
:1023000005E010E024E030E043E050E062E070E0FF
:1023100083EC94E00E94140909E010E028E030E02A
:1023200047E050E066E070E089EA94E00E9414091A
:102330000DE010E02CE030E04BE050E06AE070E0AF
:102340008FE894E00E941409C5E7D4E01B861A8642
:10235000198218821E8A1F8A188E198E84E190E0D5
:102360009F838E838CE290E09D878C878EE290E045
:102370009F878E8761E08CE20E94D80861E08E859D
:102380000E94D808198A188A1B8A1A8A1D8A1C8AF0
:1023900082E090E099878887E7E0F5E02BE232E081
:1023A0003183208312821382148215828AE090E0A6
:1023B0009783868310861186E9EFF4E031832083CA
:1023C0001282138214821582978386831086118667
:1023D000EBEEF4E0318320831282138214821582A3
:1023E0009783868310861186EDEDF4E03183208398
:1023F0001282138214821582978386831086118637
:10240000DF91CF911F910F910895FC0188279927A3
:10241000E89421912032E9F3293010F02E30C8F3EE
:102420002B3239F02D3231F4689403C00BD0820F77
:10243000911D219120532A30C8F31EF49095819567
:102440009F4F08957AE0979F902D879F802D910D43
:102450001124089597FB072E16F4009406D077FDFB
:1024600008D051D007FC05D03EF4909581959F4F40
:102470000895709561957F4F0895A1E21A2EAA1BC9
:10248000BB1BFD010DC0AA1FBB1FEE1FFF1FA21724
:10249000B307E407F50720F0A21BB30BE40BF50B21
:1024A000661F771F881F991F1A9469F760957095AA
:1024B000809590959B01AC01BD01CF010895052E3B
:1024C00097FB16F400940FD057FD05D0D6DF07FC1C
:1024D00002D046F408C050954095309521953F4F65
:1024E0004F4F5F4F089590958095709561957F4F00
:1024F0008F4F9F4F0895EE0FFF1F881F8BBF0790D0
:10250000F691E02D1994AA1BBB1B51E107C0AA1F2D
:10251000BB1FA617B70710F0A61BB70B881F991F84
:102520005A95A9F780959095BC01CD0108950F9318
:102530001F93CF93DF938230910510F482E090E0F7
:10254000E0912005F091210520E030E0A0E0B0E02E
:10255000309719F140815181028113814817590741
:10256000C8F08417950769F4109731F012960C9310
:10257000129713961C9327C00093200510932105F2
:1025800022C02115310519F04217530718F49A019A
:10259000BD01EF01DF01F801DBCF21153105F9F0B5
:1025A000281B390B2430310580F48A819B81611509
:1025B000710521F0FB019383828304C09093210570
:1025C00080932005FE01329644C0FE01E20FF31F06
:1025D0008193919322503109398328833AC0209105
:1025E0001E0530911F05232B41F4209103023091E9
:1025F000040230931F0520931E05209101023091A3
:1026000002022115310541F42DB73EB74091050274
:1026100050910602241B350BE0911E05F0911F0519
:10262000E217F307A0F42E1B3F0B2817390778F0A9
:10263000AC014E5F5F4F2417350748F04E0F5F1F08
:1026400050931F0540931E058193919302C0E0E0D3
:10265000F0E0CF01DF91CF911F910F910895CF93BB
:10266000DF93009709F481C0FC0132971382128234
:10267000A0912005B0912105109781F4208131812E
:10268000820F931F20911E0530911F0528173907CF
:1026900051F5F0931F05E0931E0567C0ED0120E0A2
:1026A00030E0CE17DF0740F44A815B819E0141157F
:1026B0005105F1F0EA01F5CFD383C2834081518106
:1026C000840F951FC817D90759F488819981840F01
:1026D000951F0296918380838A819B819383828355
:1026E0002115310529F4F0932105E09320053DC023
:1026F000E901FB83EA8349915991C40FD51FEC1777
:10270000FD0761F480819181840F951F0296E90194
:1027100099838883828193819B838A83E0E0F0E0C0
:1027200012968D919C911397009719F0FD01DC0191
:10273000F7CF8D919C9111979D012E5F3F4F820F96
:10274000931F20911E0530911F052817390769F442
:10275000309729F4109221051092200502C01382AF
:102760001282B0931F05A0931E05DF91CF910895AB
:102770006F927F928F929F92AF92BF92CF92DF9291
:10278000EF92FF920F931F93CF93DF93009781F403
:10279000CB01DF91CF911F910F91FF90EF90DF90D0
:1027A000CF90BF90AF909F908F907F906F90BFCE53
:1027B000FC01E60FF71F9C0122503109E217F307D5
:1027C00008F4A5C0EC01D9010D911C9111970617D1
:1027D0001707A8F00530110508F497C0C801049741
:1027E0008617970708F491C002501109061B170BB2
:1027F000019311936D937C93CF0131DF86C05B0110
:10280000A01AB10A4C01800E911EA0912005B09132
:102810002105612C712CE12CF12C109709F446C094
:102820008D919C911197A815B905B1F56C0142E005
:10283000C40ED11CCA14DB0478F14C018A189B0821
:10284000640142E0C40ED11C1296BC9012971396FC
:10285000AC91B5E0CB16D10440F0B282A383918253
:102860008082D9016D937C9309C00E5F1F4F800F4A
:10287000911FF90191838083EB2DFA2FE114F1046C
:1028800031F0D7011396FC93EE9312973EC0F0936C
:102890002105E093200539C06816790608F43C014B
:1028A0007D0112960D90BC91A02DB7CF80911E0591
:1028B00090911F0588169906E1F466167706C8F40C
:1028C0008091010290910202009741F48DB79EB76A
:1028D0004091050250910602841B950BE817F907F9
:1028E000B0F4F0931F05E0931E05F9017183608336
:1028F0000CC0CB011CDE7C01009749F0A801BE0191
:102900001BD0CE01ACDEC70104C0CE0102C080E006
:1029100090E0DF91CF911F910F91FF90EF90DF90AA
:10292000CF90BF90AF909F908F907F906F900895C1
:1029300081E090E0F89450C0FB01DC0102C00190FE
:102940000D9241505040D8F70895FB01DC018D9164
:10295000019080190110D9F3990B0895FB01DC0156
:1029600001900D920020E1F70895FB01DC01415038
:10297000504030F08D910190801919F40020B9F782
:10298000881B990B0895FB01DC014150504048F031
:1029900001900D920020C9F701C01D924150504096
:1029A000E0F70895FB0151915523A9F0BF01DC0127
:1029B0004D9145174111E1F759F4CD0101900020E7
:1029C00049F04D9140154111C9F3FB014111EFCF81
:1029D00081E090E00197089511E0CFE1D1E000E0BF
:1029E00005C0802FFE0187DD2196011DC032D10771
:0A29F00080E00807B1F7F894FFCF6C
:1029FA0001000022058000000000000000E50153EC
:102A0A00017D013102AE018C01A001000000001D10
:102A1A000553018A0252010000000092028F0253FC
:102A2A007461727400434E4320526F75746572006C
:102A3A00486F6D65205265743F203C533E004572D5
:102A4A00726F3A20506C6561736500436C6F7365F1
:102A5A002074686520436F76657221004D61636852
:102A6A00696E6520486F6D6500696E2070726F67C8
:102A7A00726573732E2E2E0024002300533D0046E8
:102A8A003D00583D00593D005A3D00434F4D414ECF
:102A9A00444F532053455249414C3A200056414C29
:102AAA004F5220444520533A200056414C4F522061
:102ABA00444520463A200056414C4F522044452076
:102ACA00583A200056414C4F5220444520593A204A
:102ADA000056414C4F52204445205A3A2000524F4A
:102AEA00544143414F2053454E5449444F20435784
:102AFA003A204D3300524F544143414F2053454EE3
:102B0A005449444F204343573A204D3400533A2006
:102B1A0020202000583A20202020004F766572207D
:102B2A002054726176656C00417869733A20005AC4
:102B3A002B005A2D00582B00582D00592B00592DC7
:042B4A00000D0A0070
:00000001FF
