:100000001FC100004EC100004CC100004AC10000E9
:1000100048C1000046C1000044C1000042C10000C8
:1000200040C100003EC100003CC100003AC10000D8
:1000300038C1000036C1000034C1000032C10000E8
:1000400030C100002EC100002CC100002AC10000F8
:1000500028C1000026C1000024C1000031C10000F9
:1000600020C10000D7C70000ACC700001AC10000C3
:1000700018C1000016C1000014C1000012C1000028
:1000800010C100000EC100000CC100000AC1000038
:1000900008C1000006C1000004C1000002C1000048
:1000A00000C10000FEC00000FCC00000FAC000005B
:1000B000F8C00000F6C00000F4C00000F2C000006C
:1000C000F0C00000EEC00000ECC00000EAC000007C
:1000D000E8C00000E6C00000E4C00000E2C000008C
:1000E000E0C000006E037103600364036A03A803A9
:1000F000750379037F03830387038D0391039503BE
:10010000A8039B039F03A3032309280930093B0984
:100110003D0942094A0955096309650900002100A2
:10012000240027002A002D003000330001010000C8
:10013000040107010A0100002200250028002B000D
:100140002E003100340002010000050108010B01FE
:1001500005050505070508080808020202020A0A43
:100160000808040404040101010101010101030361
:10017000030303030303040707070C0C0C0C0C0C0C
:100180000C0C0202020206060606060606060B0B09
:100190000B0B0B0B0B0B010210202008081020404A
:1001A000102040800201020108040201010204083B
:1001B00010204080804020100804020180040201C9
:1001C0008040201008040201080402010102040812
:1001D00010204080010204081020408000000A0B1B
:1001E00002090C0D0E0807030401000000000000C6
:1001F00000000000000000000000000000000000FF
:1002000000000000000000001211100000000000BB
:1002100000000000000000000000000000000000DE
:100220000000000020002300260029002C002F00E1
:100230003200000100000301060109015F0F5A109E
:1002400011241FBECFEFD1E2DEBFCDBF00E00CBF57
:1002500025E0A0E5B3E001C01D92AD31B207E1F7A2
:1002600013E0A0E0B2E0E4EEF6E200E00BBF02C073
:1002700007900D92A035B107D9F711E0CFE1D1E099
:1002800000E006C021970109802FFE010E94F010B6
:10029000CE31D10780E00807A9F70E9495090C9498
:1002A0006113AECE0E940D132FB7F89460917C03BA
:1002B00070917D0380917E0390917F032FBF0895FD
:1002C0001F920F920FB60F9211242F933F938F938B
:1002D0009F93AF93BF9380917C0390917D03A091F6
:1002E0007E03B0917F0330917B0323E0230F2D37F2
:1002F00020F40196A11DB11D05C026E8230F02962A
:10030000A11DB11D20937B0380937C0390937D03FB
:10031000A0937E03B0937F0380918003909181032B
:10032000A0918203B09183030196A11DB11D80931A
:10033000800390938103A0938203B0938303BF91C2
:10034000AF919F918F913F912F910F900FBE0F9082
:100350001F901895CF93DF93EC01698718863ED5DF
:10036000882319F08885836088879EDF6A837B8372
:100370008C839D83DF91CF910895CF93DF93BC0150
:1003800084E993E008D6EC016CE473E084E993E03F
:1003900002D68C0F9D1FDF91CF91089540E0682F0A
:1003A00081E694E098C681E0F9DF8BE39FE1019755
:1003B000F1F70895FC01808580FD04C082FB882749
:1003C00080F9089580E00895643008F063E090912A
:1003D0007404691710F06FEF690FE62FF0E0EF5922
:1003E000FB4F9489890F8068D9CFE1E6F4E08089DA
:1003F000982F9260908B8A60D1CFCF92DF92EF924C
:10040000FF921F93CF93DF93EC0188858B7F8887C2
:10041000CE01E4D4182F888586958170181751F085
:1004200043DF6A837B838C839D83988582E0892761
:10043000888727C039DFCA80DB80EC80FD80AB0174
:10044000BC014C195D096E097F098E819F81A0E076
:10045000B0E0481759076A077B0798F088858170D4
:10046000181779F021DF6A837B838C839D839885BD
:1004700081E089278460888717DF6A877B878C877C
:100480009D87888582FB882780F9DF91CF911F9116
:10049000FF90EF90DF90CF9008954F925F926F9210
:1004A0007F928F929F92AF92BF92CF92DF92EF9204
:1004B000FF920F931F93CF93DF93CDB7DEB7A19732
:1004C0000FB6F894DEBF0FBECDBF8C016A017B0171
:1004D00077FF2EC0DC01ED91FC910190F081E02DC1
:1004E0006DE219955C0122273327A9012C193D09DA
:1004F0004E095F0919A2FE01B1967F019AE0492ECB
:10050000512C612C712CCA01B901A30192010E94E6
:10051000B210605DD7016E937D0121153105410553
:10052000510589F7BD01C80136D58A0D9B1D1DC037
:100530009A01AB0119A2FE01B1967F018AE0882ED3
:10054000912CA12CB12CCA01B901A50194010E94E2
:10055000B210605DD7016E937D0121153105410513
:10056000510589F7BD01C80116D5A1960FB6F894BB
:10057000DEBF0FBECDBFDF91CF911F910F91FF90D6
:10058000EF90DF90CF90BF90AF909F908F907F9033
:100590006F905F904F900895CF93DF9320915F0409
:1005A00030916004232B79F0FC01C0915B04D09161
:1005B0005C0460817181CE010E944713009719F09D
:1005C0008C1B9D0B02C08FEF9FEFDF91CF910895A1
:1005D000CF93DF93FC01448155816081718184E96F
:1005E00093E0BFD2EC016CE473E084E993E0D3D4F0
:1005F0008C0F9D1FDF91CF910895BC0180919203D4
:1006000090919303E4E8F3E027E030E021503109D2
:1006100032972115310551F04685578564177507C6
:10062000ACF74817590794F7CA01F0CF08950F9314
:100630001F93CF93DF9341155105E1F061157105CB
:10064000C9F0FC01C481D581209719F4FB01108207
:1006500011C0415051094C175D0708F4EA018B01A4
:10066000FC0160817181AE01C8010E943813C00F86
:10067000D11F1882DF91CF911F910F910895CF93D1
:10068000DF93AC01990F660B770B84E993E005DFEC
:10069000EC016CE473E084E993E07DD48C0F9D1F42
:1006A000DF91CF91089590E0FC013197E231F1059F
:1006B00008F04EC08827EE58FF4F8F4F0C94F01073
:1006C000809180008F7703C0809180008F7D809320
:1006D0008000089580918000877FF9CF84B58F775F
:1006E00002C084B58F7D84BD08958091B0008F775E
:1006F00003C08091B0008F7D8093B00008958091F9
:1007000090008F7707C0809190008F7D03C080910B
:100710009000877F8093900008958091A0008F774C
:1007200007C08091A0008F7D03C08091A000877FCB
:100730008093A0000895809120018F7707C0809159
:1007400020018F7D03C080912001877F809320014D
:1007500008951F93CF93DF93282F30E0F901E452DF
:10076000FE4F8491F901EA56FE4FD491F901E05B06
:10077000FE4FC491CC23B9F0162F811194DFEC2FDA
:10078000F0E0EE0FFF1FEA5CFE4FA591B4919FB71A
:10079000F894111104C08C91D095D82302C0EC912B
:1007A000DE2BDC939FBFDF91CF911F910895CF93F4
:1007B000DF9390E0FC01EA56FE4F2491FC01E05BE0
:1007C000FE4F8491882361F190E0880F991FFC010E
:1007D000E45EFE4FC591D491FC01EA5CFE4FA59109
:1007E000B491611109C09FB7F89488812095822344
:1007F0008883EC912E230BC0623061F49FB7F8948C
:100800008881322F309583238883EC912E2B2C9373
:100810009FBF06C08FB7F894E8812E2B28838FBF27
:10082000DF91CF910895CF93DF93823028F090919C
:10083000700498609093700480937404109275040F
:1008400080E48093760480E18093770480E5809350
:10085000780461E080916504AADF809166048F3F8F
:1008600011F061E0A4DF61E080916704A0DFC1E6E0
:10087000D4E09E01215634408091700484FD03C071
:1008800084E090E002C088E090E0219628173907C4
:1008900024F461E08E818BDFECCF8BE39DE0019748
:1008A000F1F760E08091650454DF60E080916704B7
:1008B00050DF809166048F3F11F060E04ADF809145
:1008C000700484FD1CC063E081E694E0D9D3CBE4DE
:1008D000D6E4CE010197F1F763E081E694E0D0D34E
:1008E0002197F1F763E081E694E0CAD383E592E0D3
:1008F0000197F1F762E081E694E0C2D312C0806212
:100900004DDD8BE496E40197F1F7809170048062ED
:1009100045DD83E592E00197F1F7809170048062F4
:100920003DDD80917004806239DD84E08093710444
:100930008CE034DD38DD82E08093720486E0DF9164
:10094000CF912CCD0F931F93CF93DF93EC01862F84
:100950001B861A86198218821E8A1F8A188E198E83
:10096000E4E1F0E0FF83EE836C877D875F874E874D
:10097000398B288B1B8B0A8B61E019DF61E08E8538
:1009800016DF61E0888913DF61E08A8910DF1D8A44
:100990001C8A84E090E099878887DF91CF911F912E
:1009A0000F9108953FB7F89480918003909181034F
:1009B000A0918203B091830326B5A89B05C02F3F69
:1009C00019F00196A11DB11D3FBFBA2FA92F982F75
:1009D0008827820F911DA11DB11DBC01CD0142E0F0
:1009E000660F771F881F991F4A95D1F70895CF92F8
:1009F000DF92EF92FF920F931F93CF93DF93EC015F
:100A000081E090E099838883CDDF0E891F89288D4E
:100A1000398D6B017C01C01AD10AE20AF30A0A81FE
:100A20001B812C813D81C016D106E206F30660F3DE
:100A30006E8B7F8B888F998F288139818A859B85E2
:100A40002130310569F0892B31F08A859B8501972A
:100A50009B878A870FC08E819F819B878A87F5CF6E
:100A600001969B878A872E813F818217930711F415
:100A70001B861A86288539858A859B852530310510
:100A800019F064E070E002C06AE070E00E949F101C
:100A9000BC01CE01DF91CF911F910F91FF90EF909C
:100AA000DF90CF906AC3CF92DF92EF92FF920F93C5
:100AB0001F93CF93DF936C01EB017A014617570721
:100AC00020F48D2FEA01E62EF82E6EE473E0C601C5
:100AD0004ED200915F0410916004C017D107B0F5A9
:100AE000E016F10608F48701E0915B04F0915C04E4
:100AF000E00FF11FF080108260915B0470915C0444
:100B00006C0F7D1F6115710559F0FB0101900020EC
:100B1000E9F73197AF01461B570BC601F9D10EC05B
:100B2000F60180819181009711F00E94A411F601D5
:100B300011821082158214821382128280915B04CA
:100B400090915C04FC01E00FF11FF082C601DF917F
:100B5000CF911F910F91FF90EF90DF90CF9008956C
:100B60000895CF92DF92EF92FF920F931F93CF934E
:100B7000DF936C017A018B01C0E0D0E0CE15DF0578
:100B800081F0D8016D918D01D601ED91FC9101901C
:100B9000F081E02DC6011995892B11F02196EECF39
:100BA0007E01C701DF91CF911F910F91FF90EF90D0
:100BB000DF90CF900895FC01538D448D252F30E0B8
:100BC000842F90E0821B930B541710F0CF9608955A
:100BD00001970895FC01918D828D981761F0828DA7
:100BE000DF01A80FB11D5D968C91928D9F5F9F7361
:100BF000928F90E008958FEF9FEF0895FC01918D03
:100C0000828D981731F0828DE80FF11D858D90E06F
:100C100008958FEF9FEF0895FC01918D228D892F0C
:100C200090E0805C9F4F821B91098F7399270895F4
:100C300084E993E0F1DF21E0892B09F420E0822FA1
:100C40000895FC01848DDF01A80FB11DA35ABF4F89
:100C50002C91848D90E001968F739927848FA689BB
:100C6000B7892C93A089B1898C91837080648C930F
:100C7000938D848D981306C00288F389E02D8081BE
:100C80008F7D80830895EF92FF920F931F93CF93F0
:100C9000DF93EC0181E0888F9B8D8C8D981305C0CC
:100CA000E889F989808185FD25C0F62E0B8D10E03D
:100CB0000F5F1F4F0F731127E02E8C8DE8120BC0B2
:100CC0000FB607FCFACFE889F989808185FFF5CF57
:100CD000CE01B7DFF2CF8B8DFE01E80FF11DE35A95
:100CE000FF4FF0829FB7F8940B8FEA89FB898081D0
:100CF00080620AC09FB7F894EE89FF896083E88913
:100D0000F98980818370806480839FBF81E090E057
:100D1000DF91CF911F910F91FF90EF900895CF93A6
:100D2000DF93EC01888D8823C1F0EA89FB898081FB
:100D300085FD05C0A889B9898C9186FD0EC00FB6C6
:100D400007FCF5CF808185FFF2CFA889B9898C9106
:100D500085FFEDCFCE0175DFE8CFDF91CF9108950C
:100D600080E090E0892B19F063DF811125C080E0DD
:100D700090E0892B41F080E090E0892B21F00E94E7
:100D8000000081111CC080E090E0892B41F080E0E0
:100D900090E0892B21F00E940000811113C080E0B7
:100DA00090E0892BA1F080E090E0892B81F00E94F7
:100DB000000081110AC008950E940000D8CF0E944F
:100DC0000000E1CF0E940000EACF0C9400000895DB
:100DD00080E090E00895862F642FE9CCCF93DF93D5
:100DE000FC01218530E0F901E452FE4F8491F901C4
:100DF000EA56FE4FD491F901E05BFE4FC491CC233B
:100E000071F0811150DCEC2FF0E0EE0FFF1FEE5D72
:100E1000FD4FA591B491EC91ED2381E009F480E0C0
:100E20008170DF91CF910895CF93DF93EC0160E063
:100E30008E818FDC61E08E818CDC60E08E8189DCCC
:100E40008BE891E00197F1F7DF91CF9108950F932F
:100E50001F93CF93DF938C01EB01FC018081918183
:100E6000009739F06881798161157105A1F40E94BC
:100E7000A41188819981F801918380838A819B8163
:100E8000938382838C819D819583848319821882C8
:100E90001B821A820FC0F801428153812C813D814F
:100EA0004217530720F30E9423138C819D81F80180
:100EB000958384831D821C82DF91CF911F910F91B6
:100EC00008950F931F93CF93DF93EC01888199814D
:100ED000009729F02A813B812617370788F48B0178
:100EE0006F5F7F4F0E942D12009761F09983888376
:100EF0001B830A832C813D81232B11F4FC0110827A
:100F000081E001C080E0DF91CF911F910F910895A2
:100F1000EF92FF920F931F93CF93DF93EC017B012E
:100F20008A01BA01CEDF2881398181110DC02115D6
:100F3000310519F0C9010E94A411198218821D827D
:100F40001C821B821A8206C01D830C83B701C90153
:100F50000E942313CE01DF91CF911F910F91FF903B
:100F6000EF900895FC01808191810C94A411FC0103
:100F7000118210821382128215821482611571050A
:100F800049F0FB0101900020E9F73197AF01461BC2
:100F9000570BBECF08956115710579F0FB010190E3
:100FA0000020E9F73197AF01461B570BDC01ED91AB
:100FB000FC910280F381E02D199480E090E0089587
:100FC000EACF1F920F920FB60F9211240BB60F9219
:100FD0002F933F934F935F936F937F938F939F9341
:100FE000AF93BF93EF93FF9384E993E02ADEFF91E1
:100FF000EF91BF91AF919F918F917F916F915F9191
:101000004F913F912F910F900BBE0F900FBE0F90FD
:101010001F9018951F920F920FB60F9211240BB6C6
:101020000F922F938F939F93EF93FF93E091A403DD
:10103000F091A5038081E091AA03F091AB0382FDBA
:1010400012C090818091AD038F5F8F732091AE03AA
:10105000821751F0E091AD03F0E0EC56FC4F958F14
:101060008093AD0301C08081FF91EF919F918F919B
:101070002F910F900BBE0F900FBE0F901F901895E1
:10108000CF92DF92EF92FF920F931F93CF93DF9354
:101090006C017C0187E0E80EF11CC0E0D0E0062F77
:1010A00010E0B8010C2E02C0759567950A94E2F71E
:1010B0006170F70181917F014CDB2196C430D1052D
:1010C00081F7C601DF91CF911F910F91FF90EF90B3
:1010D000DF90CF90A9CECF92DF92EF92FF920F9345
:1010E0001F93CF93DF93EC01F62E642F8C8131DBBD
:1010F0008D818F3F11F060E02CDB8F850F2D10E08C
:1011000084FF23C06E0187E0C80ED11CE12CF12CB6
:10111000B8010E2C02C0759567950A94E2F76170CC
:10112000F60181916F0115DBFFEFEF1AFF0A88E0EE
:10113000E816F10469F7CE01DF91CF911F910F916D
:10114000FF90EF90DF90CF906FCEB80184E075955F
:1011500067958A95E1F7CE0193DF6F2DCE01DF9180
:10116000CF911F910F91FF90EF90DF90CF9088CF9C
:1011700041E0B1DF81E090E008950F931F93CF939A
:10118000DF93EC018B01888599850297D9F4613052
:10119000710569F024F4672BA9F460E009C062309E
:1011A000710551F06330710569F460E006C061E0DB
:1011B0008C85CFDA61E004C061E08C85CADA60E03A
:1011C0008E85C7DA88859985049771F501301105F8
:1011D000A1F044F40115110539F561E08C85B9DA07
:1011E00060E00FC00230110599F003301105E1F401
:1011F00061E08C85AEDA60E00FC060E08C85A9DA32
:1012000061E08E85A6DA61E08889A3DA60E00AC031
:1012100060E08C859EDA61E08E859BDA60E08889EB
:1012200098DA61E08A8995DA88859985059709F0C9
:101230005FC00A30110508F05BC0F8018827EC5741
:10124000FF4F8F4FCDC760E08C8583DA61E041C0EE
:1012500060E08C857EDA61E08E857BDA60E03CC000
:1012600060E08C8576DA61E08E8573DA60E08889EB
:1012700070DA61E034C060E001C061E08C8569DA59
:1012800061E004C061E08C8564DA60E08E8561DA3B
:1012900060E007C061E08C855CDA60E08E8559DA39
:1012A00061E0888956DA61E00AC061E08C8551DA34
:1012B00060E08E854EDA61E088894BDA60E08A89E9
:1012C00048DA60E00FC061E001C060E08C8541DA7F
:1012D00060E08E853EDA61E088893BDA60E08A89E9
:1012E00038DA61E08C89DF91CF911F910F9131CA7B
:1012F000DF91CF911F910F91089581EE94E05AC82C
:101300008FEE94E057C88BE095E054C88DEF94E0E1
:1013100051C88BE095E071D88DEF94E06ED88FEED8
:1013200094E06BD881EE94E068C8CF93DF93CDB79B
:10133000DEB72C970FB6F894DEBF0FBECDBF789402
:1013400084B5826084BD84B5816084BD85B58260CA
:1013500085BD85B5816085BD80916E00816080937B
:101360006E001092810080918100826080938100E4
:1013700080918100816080938100809180008160F4
:10138000809380008091B10084608093B10080914F
:10139000B00081608093B000809191008260809362
:1013A00091008091910081608093910080919000E4
:1013B0008160809390008091A10082608093A10061
:1013C0008091A10081608093A1008091A000816044
:1013D0008093A000809121018260809321018091FF
:1013E000210181608093210180912001816080939F
:1013F000200180917A00846080937A0080917A0045
:10140000826080937A0080917A00816080937A0074
:1014100080917A00806880937A001092C10082E007
:1014200002DA61E08EE0C3D9E091A403F091A50354
:1014300082E08083E091A003F091A1031082E0910B
:10144000A203F091A30380E180831092AC03E091AA
:10145000A803F091A90386E08083E091A603F091B0
:10146000A703808180618083E091A603F091A703A8
:10147000808188608083E091A603F091A70380813A
:1014800080688083E091A603F091A70380818F7D1F
:1014900080838EE292E00E94BD0162E08FE187D9F5
:1014A00062E081E284D962E083E281D962E085E290
:1014B0007ED965E270E08BE095E00E94AA0109E127
:1014C00010E010931205009311056FE170E08DEFAD
:1014D00094E00E94AA01109304050093030561E2C1
:1014E00070E08FEE94E00E94AA011093F60400933E
:1014F000F50463E270E081EE94E00E94AA0110938B
:10150000E8040093E70446E9642E712CC12C57E8E7
:10151000D52E53E9E52E53E0F52E80917903909175
:101520007A038230910509F401C144F4009781F0F7
:10153000019709F0C1C40E94D301D5C08330910541
:1015400009F41AC1049709F0B7C40E94D301AEC4CC
:101550000E94D30124E6222E312C412C512C02E092
:1015600010E0AA24A394B12C8091790390917A037E
:10157000892B09F0A1C4CDDE60E083E00E94E40184
:1015800064E372E081E694E01BDD61E080E00E94AC
:10159000E4016FE372E081E694E012DDB1DE8823BE
:1015A00009F46CC02091CD043091CE04032E000CC0
:1015B000440B550BC701B601F7D5CA01B901A20109
:1015C0009101F2D52093C9043093CA044093CB040F
:1015D0005093CC0487EC94E00ADA2091B304309164
:1015E000B404032E000C440B550BC701B601DCD527
:1015F000CA01B901A2019101D7D52093AF0430935C
:10160000B0044093B1045093B2048DEA94E0EFD952
:101610002091990430919A04032E000C440B550B31
:10162000C701B601C1D5CA01B901A2019101BCD55A
:101630002093950430939604409397045093980414
:1016400083E994E0D4D920917F0430918004032E63
:10165000000C440B550BC701B601A6D5CA01B90150
:10166000A2019101A1D520937B0430937C04409387
:101670007D0450937E0489E794E0B9D944DE882341
:1016800009F472CF80915003811105C0B0927A03A2
:10169000A092790369CF10937A030093790364CF02
:1016A00081D9DC01CB0182199309A409B509883ECF
:1016B0009340A105B105A0F321E0821A9108A10889
:1016C000B10888EE280E83E0381E411C511C81149D
:1016D0009104A104B10421F781E08093500310929A
:1016E0007A03109279038091790390917A0301979C
:1016F00009F0E2C360E080E00E94E4016DE472E082
:1017000081E694E05DDC61E080E00E94E4016AE54E
:1017100072E081E694E054DC45D91B012C0198EB82
:10172000892E9BE0992EA12CB12CBACF0E94D30117
:1017300003E010E08091790390917A03029709F019
:10174000BBC3E7DD60E080E00E94E4016BE672E08D
:1017500081E694E035DC61E080E00E94E40168E726
:1017600072E081E694E02CDCCEDD882319F310933F
:101770007A0300937903DECF0E94D30100E010E0EA
:101780008CE2882E992493948091790390917A0326
:10179000039709F091C384E993E03EDA181619061D
:1017A0000CF05AC284E993E015DA89831A82A0907A
:1017B0005F04B09060048FEFA81AB80AB5018BE5FA
:1017C00094E07FDB882391F020915B0430915C04EE
:1017D00080915F0490916004BE016F5F7F4F820F24
:1017E000931F31D7B0926004A0925F0467E872E063
:1017F000CE010796BCDB4B855C8580915F049091A0
:10180000600484179507A8F180915B0490915C04B3
:10181000009779F16F8178856115710551F11AD7BB
:10182000892B39F569E872E0CE010196A0DB2091A1
:101830005F04309160044D815E8124173507A0F06C
:1018400080915B0490915C04009771F069817A81CA
:101850006115710549F0241B350B820F931FEAD6E1
:10186000BB24B394892B09F0B12CCE0101967ADB0D
:1018700001C0B12CCE01079675DBBB2009F4ECC189
:101880006BE872E0CE01019672DBCE0101960E94F8
:10189000CC029093700380936F03CE01019662DBBC
:1018A00080916F03909170039093850380938403DC
:1018B00061E073E0CE0101965ADBCE0101960E94F1
:1018C000CC0290936E0380936D03CE0101964ADBA8
:1018D00080916D0390916E039093870380938603AC
:1018E00069E173E0CE01019642DBCE0101960E94D0
:1018F000CC0290936C0380936B03CE01019632DB94
:1019000080916B0390916C0390938903809388037B
:101910006EE872E0CE0101962ADBCE0101960E94AC
:10192000CC0290936A0380936903CE0101961ADB7F
:101930008091690390916A0390938B0380938A034B
:1019400061E972E0CE01019612DBCE0101960E94A0
:10195000CC029093680380936703CE01019602DB6B
:10196000809167039091680390938D0380938C031B
:1019700064E972E0CE010196FADACE0101960E9486
:10198000CC029093660380936503CE010196EADA58
:10199000809165039091660390938F0380938E03EB
:1019A00067E972E0CE010196E2DACE0101960E946B
:1019B000CC029093640380936303CE010196D2DA44
:1019C00080916303909164039093910380939003BB
:1019D00069E872E0CE010196CADACE0101960E9452
:1019E000CC029093620380936103CE010196BADA30
:1019F000809161039091620390939303809392038B
:101A00006AE972E084E993E0DBDA8BE594E00E9416
:101A1000E80280916F03909170031816190684F5FF
:101A20000E94FD025C016CEA72E084E993E0C8DA8E
:101A3000A5014F5F5F4F60916F03709170036E5F00
:101A40007F4FCE0101962FD8BE016F5F7F4F8FE48D
:101A500094E0FDD9CE01019685DA4091530450916E
:101A600054046DE573E08FE494E00E9417038DE564
:101A700093E040D390937803809377030E943F03D1
:101A80008091690390916A031816190604F50E9463
:101A9000FD025C0169EB72E084E993E091DA609108
:101AA000690370916A036E5F7F4FA501CE010196B5
:101AB0000E945305BE016F5F7F4F85E594E0C7D953
:101AC000CE0101964FDA85E594E00E94E80280910C
:101AD000670390916803181619068CF50E94FD02A1
:101AE0005C0166EC72E084E993E06ADAA5014F5F7D
:101AF0005F4F60916703709168036E5F7F4FCE0107
:101B000001960E945305BE016F5F7F4F8DE394E005
:101B10009ED9CE01019626DA4091410450914204AB
:101B200069E573E08DE394E00E94170389E593E093
:101B3000E1D290937403809373030E943F038091DA
:101B4000650390916603181619068CF50E94FD0234
:101B50005C0163ED72E084E993E032DAA5014F5F46
:101B60005F4F60916503709166036E5F7F4FCE019A
:101B700001960E945305BE016F5F7F4F87E394E09B
:101B800066D9CE010196EED940913B0450913C04B8
:101B900065E573E087E394E00E94170385E593E031
:101BA000A9D290937203809371030E943F038091A6
:101BB000630390916403181619068CF50E94FD02C8
:101BC0005C0160EE72E084E993E0FAD9A5014F5F11
:101BD0005F4F60916303709164036E5F7F4FCE012E
:101BE00001960E945305BE016F5F7F4F81E394E031
:101BF0002ED9CE010196B6D94091350450913604C4
:101C000061E573E081E394E00E94170381E593E0CE
:101C100071D290937603809375030E943F03809165
:101C20006D0390916E031816190624F48DEE92E060
:101C30000E94BD0180916B0390916C0318161906E8
:101C400024F484E093E00E94BD0140E050E066E0AF
:101C500072E08BE594E05CD95CDB60E080E00E94A0
:101C6000E4016CE173E081E694E0AAD94091770346
:101C700050917803052E000C660B770B81E694E0FB
:101C80000E944D0260E08AE00E94E40163E273E09A
:101C900081E694E095D94091750350917603052E25
:101CA000000C660B770B81E694E00E944D0261E028
:101CB00080E00E94E40169E273E081E694E080D96B
:101CC0004091730350917403052E000C660B770B43
:101CD00081E694E00E944D0261E08AE00E94E40106
:101CE00060E373E081E694E06BD940917103509119
:101CF0007203052E000C660B770B81E694E00E94C0
:101D00004D0201DB882331F084E090E090937A0368
:101D1000809379030115110541F4809171048D7F41
:101D20008093710488600E94CE01F0DA882311F05C
:101D300001E010E00130110509F049C0EADA60E085
:101D40008AE00E94E4010E94F501E0DA882319F09C
:101D500002E010E03CC0D4DA882389F0809175035A
:101D6000909176030196873991052CF49093760330
:101D70008093750304C07092760360927503BDDA98
:101D80008823E1F2809175039091760301979093F7
:101D900076038093750397FFD1CF1092760310924C
:101DA0007503C8CFADDA811123C0A7DA882399F073
:101DB00080917303909174030197909374038093BF
:101DC000730397FF08C010927403109273030230DC
:101DD000110509F03BC09DDA61E080E00E94E4015A
:101DE0000E94F50193DA8823E9F203E010E02EC0A7
:101DF00080917303909174030196893C910514F0CE
:101E000088EC90E09093740380937303CECF81DAD3
:101E100061E08AE00E94E4010E94F50177DA811115
:101E2000ADCC6EDA811116C068DA882381F3809117
:101E300071039091720301979093720380937103E1
:101E400097FFE5CF109272031092710303301105D2
:101E5000F1F29ACC809171039091720301968D32C8
:101E600021E092072CF49093720380937103DCCFEE
:101E70009092720380927103D7CF60E082E00E945B
:101E8000E40166E373E081E694E09AD861E084E0DF
:101E90000E94E40163E473E081E694E091D833DAD0
:101EA000882321F010927A031092790380917903AC
:101EB00090917A03049709F30E94B0062ECB0F93FA
:101EC0001F93CF93DF93E4E9F3E01382128288EE4D
:101ED00093E0A0E0B0E084839583A683B7838CE091
:101EE00092E09183808385EC90E09587848784ECF1
:101EF00090E09787868780EC90E0918B808B81ECD7
:101F000090E0938B828B82EC90E0958B848B86ECB7
:101F100090E0978B868B118E128E138E148E6EE44A
:101F200073E08BE594E023D86EE473E085E594E0FC
:101F30001ED86EE473E08FE494E019D86EE473E089
:101F400089E494E014D86EE473E083E494E00FD85D
:101F50006EE473E08DE394E00AD86EE473E087E307
:101F600094E005D86EE473E081E394E000D8E1E604
:101F7000F4E0138212828EE192E0918380838AE101
:101F800084838FEF85838CE1868384E2878382E27A
:101F9000808780E281878EE182871386148615868A
:101FA0001686178681E00E94130405E010E024E005
:101FB00030E043E050E062E070E087EC94E00E94A3
:101FC000A20409E010E028E030E047E050E066E0DD
:101FD00070E08DEA94E00E94A2040DE010E02CE095
:101FE00030E04BE050E06AE070E083E994E00E946A
:101FF000A204C9E7D4E01B861A86198218821E8AB9
:102000001F8A188E198E84E190E09F838E838CE264
:1020100090E09D878C878EE290E09F878E8761E0BD
:102020008CE20E94D70361E08E850E94D703198A53
:10203000188A1B8A1A8A1D8A1C8A82E090E0998776
:102040008887EBE0F5E02AE232E0318320831282D8
:102050001382148215828AE090E09783868310862B
:102060001186EDEFF4E03183208312821382148213
:1020700015829783868310861186EFEEF4E0318314
:10208000208312821382148215829783868310869E
:102090001186E1EEF4E031832083128213821482F0
:1020A00015829783868310861186DF91CF911F91C9
:1020B0000F91089581E394E00E94B20787E394E0D2
:1020C0000E94B2078DE394E00E94B20783E494E09B
:1020D0000E94B20789E494E00E94B2078FE494E082
:1020E0000E94B20785E594E00E94B2078BE594E078
:1020F0000C94B207FC0188279927E894219120329B
:10210000E9F3293010F02E30C8F32B3239F02D329C
:1021100031F4689403C00BD0820F911D219120539C
:102120002A30C8F31EF4909581959F4F08957AE068
:10213000979F902D879F802D910D1124089597FBD7
:10214000072E16F4009406D077FD08D051D007FC76
:1021500005D03EF4909581959F4F089570956195B7
:102160007F4F0895A1E21A2EAA1BBB1BFD010DC0D3
:10217000AA1FBB1FEE1FFF1FA217B307E407F50737
:1021800020F0A21BB30BE40BF50B661F771F881F13
:10219000991F1A9469F760957095809590959B01A9
:1021A000AC01BD01CF010895052E97FB16F40094F4
:1021B0000FD057FD05D0D6DF07FC02D046F408C08B
:1021C00050954095309521953F4F4F4F5F4F089563
:1021D00090958095709561957F4F8F4F9F4F089593
:1021E000EE0FFF1F881F8BBF0790F691E02D19940B
:1021F000AA1BBB1B51E107C0AA1FBB1FA617B7072D
:1022000010F0A61BB70B881F991F5A95A9F7809548
:102210009095BC01CD0108950F931F93CF93DF9349
:102220008230910510F482E090E0E0911B05F0917E
:102230001C0520E030E0A0E0B0E0309719F14081CB
:1022400051810281138148175907C8F084179507F7
:1022500069F4109731F012960C93129713961C9311
:1022600027C000931B0510931C0522C021153105C2
:1022700019F04217530718F49A01BD01EF01DF016D
:10228000F801DBCF21153105F9F0281B390B24307B
:10229000310580F48A819B816115710521F0FB0174
:1022A0009383828304C090931C0580931B05FE01D9
:1022B000329644C0FE01E20FF31F819391932250A6
:1022C0003109398328833AC02091190530911A05C4
:1022D000232B41F4209102023091030230931A051E
:1022E000209319052091000230910102211531053A
:1022F00041F42DB73EB74091040250910502241BD2
:10230000350BE0911905F0911A05E217F307A0F4D7
:102310002E1B3F0B2817390778F0AC014E5F5F4F3B
:102320002417350748F04E0F5F1F50931A0540934E
:1023300019058193919302C0E0E0F0E0CF01DF91B5
:10234000CF911F910F910895CF93DF93009709F4D8
:1023500081C0FC01329713821282A0911B05B091BB
:102360001C05109781F420813181820F931F2091E9
:10237000190530911A052817390751F5F0931A05F8
:10238000E093190567C0ED0120E030E0CE17DF07CC
:1023900040F44A815B819E0141155105F1F0EA014B
:1023A000F5CFD383C28340815181840F951FC81715
:1023B000D90759F488819981840F951F02969183DA
:1023C00080838A819B81938382832115310529F43F
:1023D000F0931C05E0931B053DC0E901FB83EA83F4
:1023E00049915991C40FD51FEC17FD0761F4808105
:1023F0009181840F951F0296E901998388838281D8
:1024000093819B838A83E0E0F0E012968D919C910A
:102410001397009719F0FD01DC01F7CF8D919C9186
:1024200011979D012E5F3F4F820F931F2091190539
:1024300030911A052817390769F4309729F410925A
:102440001C0510921B0502C013821282B0931A055C
:10245000A0931905DF91CF9108956F927F928F928B
:102460009F92AF92BF92CF92DF92EF92FF920F9323
:102470001F93CF93DF93009781F4CB01DF91CF912E
:102480001F910F91FF90EF90DF90CF90BF90AF9092
:102490009F908F907F906F90BFCEFC01E60FF71F4B
:1024A0009C0122503109E217F30708F4A5C0EC01A2
:1024B000D9010D911C91119706171707A8F0053047
:1024C000110508F497C0C80104978617970708F408
:1024D00091C002501109061B170B019311936D93C4
:1024E0007C93CF0131DF86C05B01A01AB10A4C0199
:1024F000800E911EA0911B05B0911C05612C712CC2
:10250000E12CF12C109709F446C08D919C91119704
:10251000A815B905B1F56C0142E0C40ED11CCA146E
:10252000DB0478F14C018A189B08640142E0C40E78
:10253000D11C1296BC9012971396AC91B5E0CB16B5
:10254000D10440F0B282A38391828082D9016D933D
:102550007C9309C00E5F1F4F800F911FF90191837B
:102560008083EB2DFA2FE114F10431F0D70113969B
:10257000FC93EE9312973EC0F0931C05E0931B056D
:1025800039C06816790608F43C017D0112960D9059
:10259000BC91A02DB7CF8091190590911A0588168E
:1025A0009906E1F466167706C8F4809100029091CE
:1025B0000102009741F48DB79EB7409104025091FB
:1025C0000502841B950BE817F907B0F4F0931A0580
:1025D000E0931905F901718360830CC0CB011CDE07
:1025E0007C01009749F0A801BE011BD0CE01ACDEF2
:1025F000C70104C0CE0102C080E090E0DF91CF911E
:102600001F910F91FF90EF90DF90CF90BF90AF9010
:102610009F908F907F906F90089581E090E0F89464
:1026200050C0FB01DC0102C001900D9241505040AE
:10263000D8F70895FB01DC018D91019080190110FC
:10264000D9F3990B0895FB01DC0101900D92002054
:10265000E1F70895FB01DC014150504030F08D91CD
:102660000190801919F40020B9F7881B990B08957F
:10267000FB01DC014150504048F001900D920020D8
:10268000C9F701C01D9241505040E0F70895FB0189
:1026900051915523A9F0BF01DC014D91451741111E
:1026A000E1F759F4CD010190002049F04D9140151A
:1026B0004111C9F3FB014111EFCF81E090E0019797
:1026C000089511E0CFE1D1E000E005C0802FFE01C8
:1026D00087DD2196011DC032D10780E00807B1F7E0
:0426E000F894FFCF9C
:1026E40000001D0580000000000000004306B10545
:1026F400DB058F060C06EA05FE0500000000B8089D
:10270400B105E806B00500000000EE06EB065374C0
:1027140061727400434E4320526F757465720048B1
:102724006F6D65205265743F203C533E00457272C4
:102734006F3A20506C6561736500436C6F7365205C
:1027440074686520436F76657221004D6163686922
:102754006E6520486F6D6500696E2070726F6772D8
:102764006573732E2E2E0024002300533D00463D36
:1027740000583D00593D005A3D00434F4D414E44E1
:102784004F532053455249414C3A200056414C4F37
:102794005220444520533A200056414C4F52204485
:1027A4004520463A200056414C4F5220444520587B
:1027B4003A200056414C4F5220444520593A2000BB
:1027C40056414C4F52204445205A3A2000524F540F
:1027D4004143414F2053454E5449444F2043573AB7
:1027E400204D3300524F544143414F2053454E54E2
:1027F40049444F204343573A204D3400533A202054
:102804002020005A3A20202000583A20202020007E
:10281400593A202020004F76657220205472617648
:10282400656C00417869733A20582B000D0A00004A
:00000001FF
